:020000041000EA
:10000000002008205D0100101B0100101D010010E0
:100010001101001011010010110100101101001058
:100020001901001019010010190100101F01001022
:10003000110100101901001021010010230100100E
:100040001101001011010010110100101101001028
:100050001101001011010010110100101101001018
:100060001101001011010010110100101101001008
:1000700011010010110100101101001011010010F8
:1000800011010010110100101101001011010010E8
:1000900011010010110100101101001011010010D8
:1000A00011010010110100101101001011010010C8
:1000B00011010010110100101101001011010010B8
:1000C00011010010110100101101001011010010A8
:1000D0001101001011010010110100101101001098
:1000E0001101001011010010110100101101001088
:1000F0001101001011010010110100101101001078
:100100001101001011010010110100101101001067
:10011000EFF30580103800BE00BE00BE00BE00BE7A
:1001200000BE00BEF2EB88712C1001104C100110C3
:10013000A001001090A31AE7D3DEFFFF42012110B7
:10014000FF010000042A0100793512AB4FF00000D6
:100150001E49086006C881F3088810474FF05040D8
:10016000006810B14FF00000F2E70DA40ECC00299A
:1001700002D000F012F8F9E71549164A002000E015
:1001800001C19142FCD11449884714498847144958
:10019000884700BEFDE701C901C29A42FBD3704700
:1001A0004C10011010010020001C00203C2B0110FD
:1001B00000000820000008203C2B0110001008203F
:1001C00000100820000000007047000008ED00E06B
:1001D000001C00206C210020CD320010E102001034
:1001E000C5320010F8B500BF064B0749C91A89107F
:1001F00048BF0131491003D0044B0BB101481847E7
:10020000704700BF001C0020001C00200000000000
:1002100008B5054B1BB105490548AFF30080BDE8A3
:100220000840FFF7E1BF00BF000000002C210020C4
:1002300058EC00102DE9F04105264FF001084FF071
:100240000007052548EC4050042447EC404064205A
:1002500000F076FF47EC405048EC4040642000F04E
:100260006FFF013EEDD148EC405048EC4040FA2091
:1002700000F066FF47EC405047EC4040BDE8F0819D
:1002800010B50A2000F086FB4FF000040A2044EC71
:1002900044000121002200F069FB0B2000F07AFBF2
:1002A0000B2044EC44000121002200F05FFB0C20F5
:1002B00000F070FB0C2044EC44000121002200F00F
:1002C00055FB042000F066FB4FF00104042344ECCE
:1002D0004430052000F05EFB052344EC443010BDA3
:1002E000F0B5194B194F87B0D3E90023CDE90223AC
:1002F000CDE90423FFF7C4FF3B78FBB14FF0504535
:1003000002AE68686C68696880F4806081F480512E
:100310003B460F4AC1F300310096C0F3802000F045
:10032000BDFA84F4006004A9C0F3C02000F0E6FA2E
:100330000A2000F005FF3B78002BE2D1FFF77AFF9F
:10034000002007B0F0BD00BF08FF001065160020B8
:100350006416002070B507210446002286B0214BA8
:1003600002ADCDE9005193E803000B0C0290ADF80B
:100370000C10204669468DF80F208DF80E3003F0E2
:1003800051FA0098A84203D00299013101F0B4FB60
:1003900000200DF0B1F80123134904F6C412C4F88B
:1003A000C40980EA907001FB00300133B3F51C7F73
:1003B00042F8040FF5D104F58052002101260225F0
:1003C0002046C2F884334FF48973C2E9E265C2E97A
:1003D000E511A2F89033C2F89C1382F8A01306B07E
:1003E00070BD00BF58EC00106589076C00F58053A4
:1003F00010B500210446D3E9E50290424FF0010216
:1004000018BFC3F8980383F8A01383F8912320B191
:10041000D3F89C13091A01F06FFB204603F08EF904
:10042000204610BD2DE9F84F384B4FF05044D3E92A
:100430000067DFF8DC8000F5805507E01BF4805092
:100440004BD0D5F89823521A93422FD06068636836
:1004500000F4806A13F40069D4F804B006D156EAB7
:1004600007032ED100F05EFF06460F4695F8A03335
:10047000D5F89413BAF1000FE0D1CA5C012A41D13A
:100480000133DBB285F8A03362685005D9D40A2065
:1004900000F056FE63685905F9D595F8A033D5F8F4
:1004A0009413D5F89823521A9342CFD101200022F9
:1004B00095F8913385F8A023034485F89133BDE87E
:1004C000F88F00F02FFF801B61EB0701804579EB6F
:1004D0000101CBDA0A20BDE8F88FCA5C022AEED10E
:1004E0000133DBB285F8A0336268D204A9D40A20B4
:1004F00000F026FE6368DB04F9D595F8A033D5F843
:100500009413CEE75046BDE8F88F00BF08FF0010F7
:10051000BFC62D008446024670B5234C056800F521
:10052000637605F000405568D2F8343625F0004176
:10053000014341F3000083EA510300EA04014B4008
:1005400042F8043B9642ECD1DCF88C431648ACF1FF
:1005500004020CF22C6604F00045D2F8944352F8E1
:10056000043F24F00041294341F3000E83EA510384
:100570000EEA00014B40B242C2F88C33EBD1DCF8FA
:10058000BC39DCF80010DCF8302661F31E030021D2
:1005900082EA530243F3000303405340CCF8BC39D2
:1005A000CCF8C01970BD00BFDFB008992DE9F84F35
:1005B00000F58054D4E9E278A8EB07056B1C0646E9
:1005C000D4F8842300F6C41945D0B2F51C7F05F198
:1005D000010564D206EB8203D3F8C439DFF84CA1DD
:1005E00083EAD3230AEAC311DFF844B14B400BEA94
:1005F000C3314B4083EA9343A3FB051301328D4281
:10060000C4F884233DD9781EA0EB0808B8FBF5F0A8
:1006100005FB1088414515D333E006EB8203D3F880
:10062000C439013283EAD3230AEAC3114B400BEAEF
:10063000C3314B4083EA9343A3FB05138845C4F8B9
:1006400084231ED9B2F51C7FE7D34846FFF762FF2B
:10065000D4F88423E1E7B2F51C7F4BD206EB820687
:10066000D6F8C4393149013283EAD323C4F884234C
:1006700001EAC3112E4A4B4002EAC332534083EAD7
:1006800093431F44D4E9E6518D42FFB20DD02F7041
:10069000D4F898330133C4F89833BDE8F88F48464E
:1006A000FFF738FFD4F8842394E76FF00043D4F8C1
:1006B0009493A5EB09059D4235D0012D2E4638BFF8
:1006C0000126AE192DD29E4228BF1E46304601F0AB
:1006D0000FFA002D475505F10107804607440FDC4E
:1006E000B9F1000F18D14644C4E9E587C4F89C630A
:1006F000BDE8F88F4846FFF70DFFD4F88423ADE737
:1007000049462A460DF0F4F8D4F89C13A1EB0901F0
:10071000484601F0F1F9E6E7D4F89C13A1EB090192
:10072000F6E71E46D2E7034802F06AFF80562C9D8A
:100730000000C6EF60EC00102DE9F84F4FF0010902
:100740004FF00008074600F580563846FFF72EFFA9
:10075000D6E9E545AC4202D11BE0A54219D014F818
:10076000013B012B33D0022BF7D1FA2000F0E8FC3B
:100770004FF0050A49EC40A04FF4FA7096F8913317
:10078000B0FBF3F0643000F0DBFC48EC40A0A54285
:10079000E5D13846FFF746FE01283CD00A281CD098
:1007A00005244FF001074FF00006042547EC4050A8
:1007B000642000F0C5FC46EC4050642000F0C0FC12
:1007C000631E13F0FF04F0D10020BDE8F88FFA207B
:1007D00000F0B6FC4FF0040ACCE708244FF0010803
:1007E0004FF00007042648EC4060052547EC4050D8
:1007F000552000F0A5FC47EC406048EC40505520E7
:1008000000F09EFC631E13F0FF04EBD147EC406048
:1008100047EC4050D8E7044605254FF0000A4FF05A
:10082000050B44EC40B0642000F08AFC4AEC40B078
:10083000642000F085FC6B1E13F0FF05EFD196F8E5
:10084000912396F890339A427FF67FAFD6E9E5324E
:10085000934218BFC6F8983301230027082498460E
:1008600086F8A07386F89133042648EC406005258D
:1008700047EC4050552000F063FC47EC406048ECEA
:100880004050552000F05CFC631E13F0FF04EBD1D8
:1008900047EC406047EC4050012096E72DE9F041DD
:1008A000069E08B10D4639B9124B0020D3E900234A
:1008B000C6E90023BDE8F0811C46D6E9007857EA76
:1008C000080310D000F02EFD00230B4AC01B61EB83
:1008D000080182428B4103DA237883F001032370FD
:1008E0002846BDE8F08100F01DFDC6E9000128465C
:1008F000F7E700BF08FF00103F4B4C00F0B5ADF527
:100900009D5D04460D4683B068B1D1E9006756EAA3
:10091000070312D100F006FDC5E9000120460DF5E0
:100920009D5D03B0F0BD0F4BD3E90023C1E9002367
:1009300020460DF59D5D03B0F0BD00F0F3FC0023F3
:10094000094A801B61EB070182428B41F0DA01A862
:10095000FFF700FD01A8FFF7EFFE01A8FFF746FD36
:10096000E6E700BF08FF00103F0D030010B4084C7D
:10097000C90041EA820154F8202004EB8003514071
:1009800003F5805301F00C015DF8044B19607047CA
:100990000480034030B44FF0000343EC440043ECC8
:1009A000400005254FF480740B4BC20053F8201013
:1009B00003EB800081F0400102F1804303F5203316
:1009C00001F0C00200F5805100F540500A605D6002
:1009D000046030BC704700BF048003400FB400B512
:1009E00083B0049C074802F0D5FD3CB105A9204620
:1009F000019102F0E7FB044802F0CCFD012002F077
:100A0000F9FB00BF7CEC001098EE001070B5864634
:100A1000EFF3108572B6124CD4E8CF6F0120002E90
:100A2000FAD1C4E8460F002EF6D1BFF35F8F4FF026
:100A3000010CC80801F007030CFA03F31EF800C00C
:100A40001CEA030608D14CEA030C0EF800C0C4E807
:100A50008F6F85F3108870BD1046FFF7BFFF00BF92
:100A6000D3200020044A1078431CDBB2182B28BF87
:100A700010231370704700BF661600204FF0E0226D
:100A8000936843F000539360704700BF0021044B0C
:100A900003F12002C3E88F1F01339342FAD170475C
:100AA000C82000204FF0E0234FF08032C3F800242C
:100AB000C3F80424C3F80824C3F80C24C3F8102492
:100AC000C3F81424C3F81824C3F81C24C3F8202442
:100AD000C3F82424C3F82824C3F82C24C3F83024F2
:100AE00062B67047012300F01F029340400941B1F4
:100AF000800000F1604000F56140C0F88031036083
:100B00007047024A203042F82030704700E100E090
:100B1000F8B50D46EFF3108772B6124ED6E8CF2F18
:100B20000123002AFAD1C6E8423F002AF6D1BFF3DA
:100B30005F8F0D4B00F110049B680C4A53F8243072
:100B4000934203D0994201D000F034FD064B9B68DC
:100B500043F82450BFF35F8F0023C6E88F3F87F32D
:100B60001088F8BDD120002000ED00E01101001038
:100B7000014B0B4403607047C820002070B5104C37
:100B8000104DAC420ED2FF26236863B1FFF76AFF17
:100B900001462046FFF7ECFFA680BFF35F8F0834C5
:100BA000AC42F1D370BDFFF75DFF01462046FFF771
:100BB000DFFF2671BFF35F8F0834AC42E4D370BD12
:100BC000F81B0020001C00200D4B1A68EFF3108169
:100BD00072B6D2E8CFCF0120BCF1000FF9D1C2E844
:100BE0004C0FBCF1000FF4D1BFF35F8F00221B68E4
:100BF000C3E88F2F81F3108840BF00200021704789
:100C000064210020000000002DE9F04F2DED028B43
:100C100085B0EFF30583DBB2103B9A0818BF0122C1
:100C20004FF0010103F0030B18BFAF4DAF4B08BFEE
:100C3000AF4D0BEB820253F8226001FA0BF205F57F
:100C400041539FEDA78B01925A602FE0B3881C049B
:100C500040F19380B379002B40F0DD80B6F9082095
:100C6000002AC0F21E81736902EB420203EBC20349
:100C7000D3E90247B7F1FF3F08BFB4F1FF3F0ED001
:100C800005EB8B01AB6A0A69D21AE31A934205D3CA
:100C900001232A6A03FA0BF3134200D10C612846A0
:100CA00000F038FBA042B941C0F2FB80B6F9083031
:100CB000019A002B0093EA63C8DBD6F8148003EB9B
:100CC0004309284608EBC907D7E9024A00F022FB8E
:100CD000A04271EB0A01B9DBBAF1000FC0F2C38088
:100CE000D7E90431834A934200F0ED807A88B6F95F
:100CF000080092B242EA0040984702460B4652EA88
:100D0000030100F0B080002B80F2D180B4EB020E22
:100D10006AEB030A38F93930C7E902EA002B95DBA0
:100D2000716903EB430201EBC202D2E90270BE45D6
:100D30007AEB000C4FEA430288DBB4462CF8083FFC
:100D400006E003EB430001EBC0005A00D0E902705B
:100D5000BE451A447AEB000001EBC20404DB31F912
:100D60003230A446002BECDA28F83930009BACF87E
:100D70000030B3881C043FF56DAF3369EFF3108288
:100D800072B6D3E8CF0F01210028FAD1C3E8401F83
:100D90000028F6D1BFF35F8F4FF6FF74B0880023B1
:100DA000316900B2B480C1E88F3F82F31088984265
:100DB000FFF650AF0746A946746906F1080807EB2D
:100DC000470E04EBCE03D3E90250B6F90830C4460F
:100DD000002B13DBB246009704E034F9363094461A
:100DE000002B09DB03EB430604EBC602D2E90271D8
:100DF000BD4270EB0101F0DA5646009FACF800707E
:100E000034F93E7024F83E30002FD8DAB3794D46DD
:100E1000002B3FF423AF0023B371B6F9083006F17D
:100E20000808581C3DD01A46776903E08046591CD3
:100E30003FF416AF03EB430107EBC100B0F802C06B
:100E40001C461CF4004F9E4637F93130EED09442D8
:100E500080ED028B05D0A8F80030328927F83120C8
:100E600034817246E3E738F8393033813369EFF380
:100E7000108272B6D3E8CF0F01210028FAD1C3E85F
:100E8000401F0028F6D1BFF35F8F7388316928F8BF
:100E90003930009B73800023C1E88F3F82F31088B4
:100EA000D4E640BF05B0BDEC028BBDE8F08F28460C
:100EB000CDE9022300F02EFA029A039B10EB020EFA
:100EC00043EB010A26E708460B6902919847002880
:100ED000C9D00299D1E9002311E700BFAFF3008028
:100EE000FFFFFFFFFFFFFFFF00800B4044210020BA
:100EF00000000B40090C00102DE9F84F364C256915
:100F00002DB1BDE8F84F0A213448FFF731BEDFF8B4
:100F1000E4800321404600F0EBF90326C4F80C807E
:100F2000FFF7A0FD4FF0504C2D4B2670034423617A
:100F3000DCF800300F216370636961801D834FF01E
:100F40000405A3F878504FF00505A3F890504FF032
:100F50000605A3F8A8504FF007050E214FF6FF72C3
:100F600008274FF00A0EA3F8C0504FF001094FF0C8
:100F70000C0C4FF0020B4FF0090A0D204FF00B053F
:100F8000A3F868111749A280A3F808E1A160A3F8AB
:100F900048B0A3F8F0A0A3F82051A3F838C1A3F8F3
:100FA0005001A3F83090A3F86060A3F8D8701A80BD
:100FB0000D4B3046C8F820700C49DC60FFF7A8FDE7
:100FC00049463046FFF78EFD094B0A211F6403484E
:100FD000BDE8F84FFFF7CCBD681600206421002063
:100FE000C8200020FFFF100044210020090C001041
:100FF00000200B4000000B400146F0B50069EFF304
:10100000108772B6D0E8CF5F0124002DFAD1C0E876
:10101000454F002DF6D1BFF35F8FB1F902E04C6967
:101020000EEB4E0CBEF1000F4FEACC05086904EB45
:10103000CC0C3CDB665B4E800026C0E88F6F87F3EC
:101040001088BCF80200CCE902230130C0F30E0086
:10105000012838BF0120059BACF80200CCF8103005
:10106000069B40EA0E40CCF814300B69EFF3108277
:1010700072B6D3E8CFCF0127BCF1000FF9D1C3E896
:101080004C7FBCF1000FF4D1BFF35F8F8B886353AB
:10109000A1F804E00B69C3E88F6F82F31088012286
:1010A000CB68097803F501538A405A60F0BD0023EC
:1010B000C0E88F3F87F310884FF0FF30F0BD00BFCE
:1010C00003464089B0EB214F37DD58690A1402EB23
:1010D000420210B500EBC2001C69EFF3108C72B62F
:1010E000D4E8CFEF0122BEF1000FF9D1C4E84E2FB2
:1010F000BEF1000FF4D1BFF35F8F428889B292B284
:101100008A4207D000221B69C3E88F2F8CF3108816
:10111000002010BD42F400424280012100221869E3
:101120009971C0E88F2F8CF310881C78DA68084614
:1011300002F50153A140596010BD0020704700BF67
:101140002DE9F04182B0064600F0ECF84FF47A73D6
:1011500004464FF0FF306FF00042E6FB0341A0422F
:1011600072EB01033ABF044615460D46A61F45F132
:10117000FF37B44275EB07033CBF0026374600F04B
:10118000D1F8301A67EB0101012871F1000106DA8C
:101190002046294602B0BDE8F04100F0FBB800F05F
:1011A000C1F8864267EB010100290ADB0021174BD9
:1011B0003246009316483B460191FFF71DFF013070
:1011C000E6D04FF0000C134A1349536A9F4204D8EB
:1011D000906AB042DCD29F42DAD10B68EFF3108004
:1011E00072B6D3E8CF8F5FF0010EB8F1000FF8D1DF
:1011F000C3E848EFB8F1000FF3D1BFF35F8F0B687E
:10120000C3E88FCF80F3108820BFDEE7C90B001042
:101210006816002000000B40642100202DE9F043F7
:1012200006460D4683B0EFF30584E4B23CB12D4B86
:101230005A6AAA421CD2002003B0BDE8F0832A4FAC
:10124000D7F80C9097F80080484600F063F808F152
:10125000040859F828301B1A301A65EB010198422E
:1012600071F1000110DB20BF1E4B5A6AAA42E2D383
:1012700014BF012400249B6AB34234BF204644F0CB
:10128000010003B0BDE8F08300F04CF8864265EB46
:101290000101002914DB154B3846CDE900343246F4
:1012A0002B46FFF7A9FE011E0ADD0E4B5A6AAA4221
:1012B00016D39B6AB34211D30B48FFF701FFB6E781
:1012C000084B5C6AAC42B6D3641B18BF01249B6A0E
:1012D000B34234BF204644F00100ADE7AA42EBD14F
:1012E00020BFE9E700000B4068160020C90B001082
:1012F00010B4054B054C064AA04214BF1846581CB2
:101300005DF8044BFFF782BBE820002000800B4013
:101310008CEC00100346416A0A46986A596A8A4270
:10132000FAD17047034B596A0A46986A596A914242
:10133000FAD1704700000B4030B4154A536A9C46FE
:10134000946A536A6345FAD1021959414FF0000576
:1013500028BF01250E4B5B6AB5B15A1C08BF1A465F
:1013600008D04FF0FF310A460948436A8B42FCD34C
:101370008B4207D1064902E0486A984202D1886A46
:101380009042F9D330BC70479942EDD8F0E700BFE6
:1013900000000B40074A536A9942FCD8994207D192
:1013A000044B02E05A6A914202D19A6A9042F9D8FB
:1013B000704700BF00000B4000EB400C4FEA8C0C64
:1013C0000CF1804C0CF5803CF0B51646DCF804209E
:1013D000051FB2F5803F38BF4FF48032EDB238BF01
:1013E000CCF80420012D2AD94FF40067254C0CF5C8
:1013F0004052176054F82020B2B9DCF80020012DCB
:1014000082EA461202F0E0020CF5805632602AD9D8
:101410004FF4006144F820304FF480330CF5005253
:101420001160CCF80430F0BD6769B7FBF2FE0EF135
:10143000010E0EEB4E0EBEF1030EFCD2DDE70129CC
:10144000D2D103240CF540521460DCF80820D207F6
:10145000FBD5DCF800200B4C82EA461202F0E002D9
:101460000CF5805632600122DCF800504D4005F04A
:101470000305356002FA01F1DCF808200A42FBD0CE
:10148000C6E700BFEC200020014B53F82000704756
:10149000EC20002070B4039D04682D0345EA034549
:1014A0001B4B002CB3FBF1F3B2FBF3F61FDB194A25
:1014B000194B904214BF4FF480424FF40042174C36
:1014C0001A6003F580531A60A36832EA0303FBD164
:1014D000212200F540530433016086601A600268DF
:1014E000002AFCDA0822C5601A6070BC70470368E5
:1014F00003F03F038B42DAD18368C3F30B03B3429B
:10150000D5D1C36803F4EE23AB42D0D1EDE700BFE1
:10151000001BB70000800540002002400000024090
:10152000012300EB4000800000F1804000F58410B2
:1015300041600360704700BF0023DB8A002242E85D
:1015400000F2520201D4102118470421184700BFAD
:10155000034AD2F82838002BFBD0BFF35F8F7047C7
:1015600000000E400021044B044ABFF35F8F43F894
:10157000041B9342F9D170470C080E402C080E4012
:1015800010B44FF48D704FF42A64064A064B074995
:101590001460D06019605368002BFCDA5DF8044BCE
:1015A000704700BF0080044000A0044000B0FA0073
:1015B000704700BF08B50148FFF710FAB0EC001003
:1015C00038B5054C054DAC4204D254F8043B98475D
:1015D000AC42FAD338BD00BF08EC001048EC001054
:1015E00010B40748074C084B084A094904601A60C0
:1015F0008B6832EA0303FBD15DF8044B704700BFF0
:10160000002002407F3BEFEF00300240F6FFF30383
:1016100000000240044BDB6CB3F5004F03D14FF4E4
:101620008022024BDA6470470000115000201150F4
:101630004FF0E022044BD2F8881D0B43C2F8883DDE
:1016400010EE3004704700BF030330006FF06041BC
:10165000044B054A19609368DB4333F06043FAD1C9
:10166000704700BF003002400000024010B545F254
:101670005320FFF761FFBDE81040034604201847E0
:1016800010B545F25320FFF757FFBDE81040034661
:1016900001201847FFF7FAB91449154B70B55C1AC9
:1016A000A610442E324628BF4422124D92002846EE
:1016B0000CF01EF9B4F5867F13D80F4AC6F144002A
:1016C00012D02B19410803EBC101C3E900220833F2
:1016D0008B42FAD1C30704D520F00100304445F80D
:1016E0002020064B9D6070BD4320F8E700000010ED
:1016F00010010010000000201101001000ED00E0BA
:10170000002370B52B4C82B0C4F88430FFF738FF4B
:101710000122294BDA63636C012BFCD10321264A99
:10172000244B11639C6B012CFCD10226052521461C
:101730000523224A22480096FFF7ACFE21462B469D
:10174000204A21480095FFF7A5FE002204203146DB
:101750001E4BFFF731FE2146284600221C4BFFF7A7
:101760002BFE0022082011461A4BFFF725FE00220F
:1017700009201146174BFFF71FFE002206201146D5
:10178000134BFFF719FE0022114B07201146FFF7FC
:1017900013FE0420FFF778FE00240F4BA3FB003557
:1017A000AD0CE0B229460134FFF7BAFE062CF8D1A1
:1017B00002B070BD0000014000300140002F6859A8
:1017C00000000540008C864700800540001BB700E4
:1017D00080D1F008006CDC0283DE1B4386B003B4CA
:1017E00051FC0804CDE9020151FC0904CDE90401D2
:1017F00051EC0A04CDE9060103BCF047BDE80050F6
:101800004EEC00C4BDE800504EEC01C4BDE80050F1
:101810004EEC02C400BD000000B5FFF7DFFF02E0A0
:1018200010FE30F4F8D441EC100443EC112400EE27
:10183000010410EE010480EE200451EC1004704706
:1018400000B5FFF7CBFF02E010FE30F4F8D441EC16
:10185000100443EC112400EE010410EE210480EE8C
:10186000200451EC3004704700B5FFF7B7FF02E0E9
:1018700010FE30F4F8D410B541EC100443EC112400
:1018800051EC040453EC0524A0FB024C5FF0000E65
:10189000E0FB03CEE1FB02CE4CEC20440024E1FB54
:1018A00003E444EC30E480EE200451EC5004BDE845
:1018B0001040704700B5FFF791FF02E010FE30F4D2
:1018C000F8D441EC100443EC112451EC2104A0FBAA
:1018D00001126FEA820252FB100052FB12F252FB1D
:1018E0001000A0EBD07C53EC04245CFB13F153EC10
:1018F0001524A1FB022001FB030053EC4424A2EBBE
:10190000000050FB1CF24FEA111312EB017043EB85
:10191000E27140EA515020EA915020F0070053EC68
:101920007524A0FB023C53EC752400FB03CC01FBA7
:1019300002CC53EC0424ACEB824C40EA5C70A0F186
:10194000010041EC400480EE200451EC700470472B
:1019500000B5FFF743FF02E010FE30F4F8D440EC8E
:10196000700400EE010410EE210480EE200451EC1E
:101970003004704700B5FFF731FF02E010FE30F48D
:10198000F8D440EC600400EE010410EE210480EE77
:10199000200451EC3004704700B5FFF71FFF02E050
:1019A00010FE30F4F8D441EC800400EE010410EE97
:1019B000010480EE400410EE1304704700B5FFF7F9
:1019C0000DFF02E010FE30F4F8D441EC800400EE8C
:1019D000010410EE010480EE400410EE3304704761
:1019E00000B5FFF7FBFE02E010FE30F4F8D441EC46
:1019F000100443EC112400EE010410EE3004C0F397
:101A00000070704700B5FFF7E9FE02E010FE30F409
:101A1000F8D443EC102441EC110400EE010410EE64
:101A200030F48CBF01200020704700BF00B5FFF7E5
:101A3000D5FE02E010FE30F4F8D443EC102441EC63
:101A4000110400EE010410EE30F42CBF0120002040
:101A5000704700BF00B5FFF7C1FE02E010FE30F492
:101A6000F8D441EC100443EC112400EE010410EE14
:101A700030F42CBF01200020704700BF00B5FFF7F5
:101A8000ADFE02E010FE30F4F8D441EC100443EC5B
:101A9000112400EE010410EE30F48CBF0120002070
:101AA000704700BF10B504460AF024FC28B1034675
:101AB000034A2344934200D810BD0248FEF78EFF2C
:101AC00000000820BCEC001010B50C460AF066FFC0
:101AD00028B10346034A2344934200D810BD02486C
:101AE000FEF77CFF00000820BCEC00100AF00ABCE6
:101AF000FFF7D8BFFFF7FABFFFF7F8BF9A4238BF2A
:101B000088547047704700BF2DE9F04F83B0994665
:101B1000DDE90DAB0F9B884611469A07074616D1A3
:101B2000DA453AD20C460D46ABEB0A060E44224685
:101B30004B46414620200134B847B442F7D12946EC
:101B4000BAF1000F08D1204603B0BDE8F08F0C4673
:101B5000BAF1000F10D00E4655460C9B2E449A4405
:101B60000191721B4B46013D41461AF8010D344666
:101B7000B847002DF5D101990F9B9B07E3D5651A56
:101B8000AB45E0D922464B46414620200135B847B7
:101B90005D4504F10104F5D3D5E70C46BAF1000F19
:101BA000D9D1D0E72DE9F04F0F9FDDF8248017F051
:101BB000020F0A9C9DF82CA00E9DDDE90C9644D1E5
:101BC000F5BBB44241D207F0010B04F1FF3C4FF0EA
:101BD000300EC44404E00134A6420CF801EF01D9F0
:101BE000202CF8D1BBF1000F00F08880A5422CD941
:101BF00004F1FF3C4FF0300EC44404E00134AC4229
:101C00000CF801EF21D0202CF8D117F0100F0ED0D6
:101C100017F4806F54D1A64263D0A54261D0B9F1C8
:101C2000100F50D0B9F1020F56D0202C29D120240A
:101C3000CDE90B57CDE90984BDE8F04FFFF764BF4C
:101C400017F0010B34D1B442BFD317F0100F1ED0E0
:101C500017F4806FE3D1002CDDD1B9F1100F63D000
:101C6000B9F1020F77D0302488F800400124BAF18E
:101C7000000F11D17E0748D52B2608F804600134E7
:101C8000D6E7264601344FF0300C08F806C0202C69
:101C9000CDD0BAF1000FEDD02D2608F80460013444
:101CA000CDE90B57CDE90984BDE8F04FFFF72CBF14
:101CB000BAF1000F30D0B44205F1FF3585D395E776
:101CC000B9F1100FB3D1BE063BD5202CAFD05826AA
:101CD00008F804600134A8E7202CA8D02646013477
:101CE00007E0661EB9D0B9F1100F36D0B9F1020F76
:101CF000C9D14FF0620C08F806C096E717F0100F34
:101D0000C5D017F4806F86D089E73E0790D520268E
:101D100008F8046001348BE717F00C0F00D0013D88
:101D2000B442FFF452AF61E7BC0612D4782488F8BD
:101D30000040302488F801400224BAF1000F99D005
:101D4000AAE7202C3FF473AF782608F8046001342A
:101D50006BE75824EBE76224E9E717F0200FA4F1C2
:101D6000020C04D04FF0580E08F80CE08BE74FF04F
:101D7000780E08F80CE086E700B9704701F0C8BBA0
:101D80002DE9F04F97B09DED207BDDE9225B074602
:101D9000884651EC170B249C99460C920B46024640
:101DA0008DED047B0794FFF71FFE002840F0F481BF
:101DB000DDE904014FF0FF326FF48013FFF726FED8
:101DC000002840F01B81DDE904014FF0FF32AC4BED
:101DD000FFF758FE002840F0EE80DDE90401A4A3DF
:101DE000D3E90023FFF74EFE002840F0D380DDE961
:101DF0000401A1A3D3E90023FFF708FE002840F067
:101E0000C980DDE9040100220023FFF7FFFD00285F
:101E100040F0E88023460D9013F4806F08BF06253C
:101E200030212B460EAAA5F1200605E0013BB34266
:101E300002F8011B00F09381092BF7D81E46ED1A1A
:101E4000DDE90401FFF7ACFD8E4B044603EBC6034E
:101E500093ED007B8DED087BFFF77EFD02460B4680
:101E6000DDE90401FFF7F0FCDDE90823FFF700FDE1
:101E700002460B46CDE90A23FFF7A4FD8246FFF791
:101E80007DFD02460B46DDE90A01FFF7DDFC024657
:101E90000B46CDE90A2300227B4BFFF7F3FD002818
:101EA00000F0FE800AF1010A5046FFF767FD024686
:101EB0000B46DDE90801FFF7BDFD10B14FF0000A48
:101EC0000134002E00F0FD80681E0EABDFF8CCC19F
:101ED00018440FE0ACFB0A21C90801EB8102AAEB10
:101EE00042023032BAF1090F00F8012F40F21C8192
:101EF0008A461D46202D05F1010306F1FF36E9D182
:101F00002025691E0EAB6148194410E080FB046275
:101F1000C3EBA20303EB8302A4EB420404F13002FF
:101F200001351C4601F8012F002B00F0EB80202D1D
:101F30004FEAE473EAD1079B03F00303012B18D1A6
:101F4000BBF1000F15D00D9B002B00F00A810BF1A7
:101F5000FF3BBBF1200F0CD96B1E0EA930220B44A6
:101F600005E001355D4503F8012F80F0D180202D7B
:101F7000F7D1079B0EACCDE902B341464B4638463C
:101F80000C9A01950094FFF7BFFD8246504617B0AA
:101F9000BDE8F08F079B9DED047BCDE923B341465F
:101FA0004B4638460C9A8DED207B229517B0BDE844
:101FB000F04F00F045B9610723464CBF04230323CB
:101FC0004146219338464B46079A48BF304CCDE9ED
:101FD00022B258BF2F4C0C9A209417B0BDE8F04F96
:101FE000FFF792BDDDE9042300200021FFF72CFC60
:101FF0000123CDE904010D9323460DE723469C07F9
:1020000040F0AA80BBF1040F40F2A6800C9B1D4655
:102010001C1F04EB0B0A2A464B4641462020013583
:10202000B847AA45F7D155461B4C261F14F8010D99
:102030002A464B464146B847B44205F10105F5D161
:10204000079B0AF1040A9807A0D50C9CAAEB04038D
:102050009B459BD952464B46414620200AF1010A36
:10206000B847AAEB04035B45F4D38FE7AFF30080D6
:102070000000000065CDCD410000000065CDCDC160
:10208000FFFFEF7F70FF00100000E03F67666666AD
:1020900010ED001018ED001024ED0010CDCCCCCCCC
:1020A0000022DDE90A01634BFFF7B0FC00287FF452
:1020B00008AFBAF1000F6AD10AF1010A002E7FF4CD
:1020C00003AF2046FFF748FC02460B46DDE904015A
:1020D000FFF7BAFB02460B46CDE904230022554B1D
:1020E000FFF794FC00287FF40CAFDDE90401002227
:1020F000504BFFF7C7FC00287FF403AF013424F0F6
:102100000104FEE6079B03F00303012B00F082802D
:10211000202D3FF42EAF0D9B7BB32D220DEB05033D
:1021200083F83820013524E7202B3FF4E9AE0EAACE
:1021300015441E44302204E0202B05F8012F3FF403
:10214000DFAE9E4203F10103F6D12E220DEB060312
:1021500083F83820751CD4E6DDF830A063E720252D
:102160006EE6079B13F00C0F50D00BF1FF3BAB4515
:102170003FF6F2AE202D3FF4FCAE079B5A0701D587
:102180002B22CBE71B077FF5F4AE2022C6E71AF01F
:10219000010F3FF496AE8FE7A60734D1BBF1030FD2
:1021A00031D90C9B1D46DC1E04EB0B0A2A464B461C
:1021B000414620200135B8475545F7D155461E4CBC
:1021C000E61E14F8010D2A464B464146B847A64282
:1021D00005F10105F5D1079B0AF1030A9D077FF57B
:1021E000D5AE0C9CAAEB04039B457FF6CFAE5246BE
:1021F0004B46414620200AF1010AB847AAEB0403E6
:102200009B45F4D8C2E6DDF830A0D7E7AB453FF6F2
:10221000A3AEAEE6BBF1000F3FF47AAF0D9B002BEF
:102220009FD00BF1FF3B5D45FFF496AE202D7FF470
:1022300074AF9EE60000E03F1FED001000000000BC
:102240002DE9F04F9FB02A9EDDE9284507469346C9
:102250000891099322462B46204629460E96DDE931
:102260002BA6FFF7C1FB002840F0BE802046294680
:102270004FF0FF32784BFFF705FC002840F0B480A8
:10228000204629464FF0FF326FF48013FFF7BEFB64
:10229000002840F0A9802046294600220023FFF7AD
:1022A000B5FB002840F0D581CDE90A45DDE90A23D8
:1022B0009046994606F4006216F480630F921393D9
:1022C00040F0A18058EA090340F0CA80002A40F09B
:1022D000E38106230E9316F00202109240F0D4819F
:1022E0005346042B38BF04230C920422043B129261
:1022F0000F932046294600220023FFF787FB002882
:1023000040F0F3819DED0A7B0F9B5A4603930E9B91
:102310008DED007B029326F4006304933846099BFD
:102320000899FFF72DFD024616F0200F099B08992A
:102330000CBF6520452002F10108B8470C9A129B9A
:1023400016AC5D1E82EAE273A3EBE273D10F0026A6
:1023500022469946DFF804C101E0202E10D0CE4677
:10236000ACFB0930C00800EB8003A9EB430330331A
:10237000BEF1090F814606F1010602F8013BECD8D7
:102380000523002006930A2305950094099D089CC7
:102390004246CDE90330CDE901612B46214638465E
:1023A000FFF700FC109A8046D2B1A0EB0B06B245B5
:1023B00016D90BEB06022B46214620200136B847E2
:1023C000B245F6D80BF1FF335344CBF10102A3EB36
:1023D00008034244924538BF002308F1010898449D
:1023E00040461FB0BDE8F08F5A463846CDE9284533
:1023F000CDE92BA60E9C099B08992A941FB0BDE835
:10240000F04FFFF7BDBC58EA09032BD1002A3FF477
:1024100062AF00230C930E9B0C9A934200F3B98198
:102420004FF000082046294600220023FFF7EEFA6D
:10243000002840F013819DED0A7B26F4006646F4E7
:1024400080668DED287B5A463846CDE92A8A099B5D
:1024500008992C96D2E700BFFFFFEF7FCDCCCCCC04
:1024600006230E93C9F30A50A0F2FF30FFF774FA67
:10247000C1A3D3E90023FFF7FBF9C1A3D3E90023EC
:10248000FFF7CEF9C9F31309CDE90C0149F07F51EB
:1024900040460022B24B41F44011FFF7D5F9A4A306
:1024A000D3E90023FFF7E4F902460B46DDE90C010E
:1024B000FFF7B6F9FFF774FA0C90FFF74DFA9EA3F9
:1024C000D3E9002380468946FFF7D2F90022A54BC5
:1024D000FFF7A6F9FFF764FA034649464046129310
:1024E00097A3D3E90023FFF7C3F9804612988946E2
:1024F000FFF732FA94A3D3E90023FFF7B9F90246B4
:102500000B4640464946FFF79FF902460B46804678
:102510008946FFF7ADF942464B46CDE910014046EA
:102520004946FFF77DF90022CDE91401DDE91001EC
:102530008D4BFFF7C3F900228C4BFFF771F9024670
:102540000B46DDE91001FFF7B9F90022884BFFF7D0
:1025500067F902460B46DDE91001FFF7AFF9424685
:102560004B468046894600204FF08041FFF76CF9CA
:1025700002460B4640464946FFF752F902460B46D3
:10258000DDE91401FFF79AF900227A4BFFF748F9C9
:10259000129B002203F2FF3C4FEA0C53FFF768F94D
:1025A00080468946DDE90A0142464B46FFF72EFA8E
:1025B00050B10C9B4046013B49460C9300226B4BAB
:1025C000FFF77CF9804689460C9A43466332C62A57
:1025D00006F00202109249460F9A2CD8002A5ED0CB
:1025E000042212920B433FF416AFDDE90A0158A30F
:1025F000D3E90023FFF732FA48B1DDE90A0156A317
:10260000D3E90023FFF702FA00287FF404AF0E9B02
:10261000002B50D0139A002A7DD0013B0E93129BC1
:102620009A4505D9109B002B00F0AE800223109331
:1026300000230F9344E022BBBAF1050F4FD906F0F7
:102640000203002B49D105231293AAF105030F932E
:102650003AE005F100430A940B9327E626F400665E
:1026600046F4806638462C96DDE90A67344607F161
:1026700000455A46CDE92A8ACDE92845099B0899A3
:10268000BCE605221292ADE700230222CDE90F320B
:1026900004220C9312922CE64FF00508C2E6BAF120
:1026A000040F1FD9109B002B78D104231293AAF199
:1026B00004030F9304E0129B9A4531D80E9B0F93AD
:1026C0000C9B002B3FF415AEDDE90A0142464B4658
:1026D000FFF7F4F8CDE90A010BE602231093052376
:1026E0001293F1E704231293EAE7DDE90A45A046D5
:1026F0000F9B05F1004903930E9B5A46029326F463
:10270000006304933846CDE90089099B0899FFF7D7
:1027100037FB024608E6129B9A4544D80F92CFE752
:10272000109B8BB30E9B0F9302231093C8E700BF3F
:1027300061436F63A787D23F71A379094F930A4022
:102740001655B5BBB16B0240EF39FAFE422EE63F9B
:102750002D431CEBE2361A3F0000000080842E411E
:102760000000F83F0000E03F00002C400000244043
:10277000000018400000F03FFB799F501344D33F06
:10278000B3C8608B288AC63F129BAAEB03030F9342
:1027900096E7A3EB020808F1FF3843E604231293FF
:1027A000022310938CE7109B002BEDD002230F9295
:1027B000109385E72DE9F04F9BB0249C954D0A942A
:1027C000954CB1F1000A18BF834625601878934CE8
:1027D000914608BFA3460993002800F093824FF06A
:1027E00000080AE042464B46514608F10108D84726
:1027F000099B1878002800F0CE80099B252803F15A
:1028000001030993EED11C460023224612F8010B66
:10281000A0F1200110290AD8DFE801F04009093CA5
:102820000909090909090938093409093000A0F121
:1028300030010929099440F28A802A2800F0F080AA
:1028400000252E2800F096800026A0F168011229AC
:102850002DD8DFE811F049012C0043012C0038018C
:102860002C002C002C002C002C002C002C0027000D
:102870002C002C002C002C002C002700144643F0C8
:102880000103C2E7144643F00203BEE7144643F0D7
:102890000403BAE7144643F01003B6E7144643F0C6
:1028A0000803B2E70999487843F480730132672836
:1028B00009927ED8242840F2C180A0F12502422A44
:1028C00000F2BC80DFE812F05001BA00BA00BA0092
:1028D000BA00BA00BA00BA00BA00BA00BA00BA0028
:1028E000BA00BA00BA00BA00BA00BA00BA00BA0018
:1028F000BA00BA00BA00BA00BA00BA00BA00BA0008
:10290000BA00BA00BA00BA00190137011901BA00B9
:10291000BA00BA00BA00BA00BA00BA00BA00BA00E7
:10292000BA00BA00BA00BA00BA00BA00BA00BC01D4
:10293000BA00BA00BA00BA00BA00BA00BA00BA00C7
:10294000BA00BC015801BC01190137011901002569
:1029500000E0013205EB850500EB45051078303DC0
:10296000A0F130010929F4D92E28099202F10102BF
:102970007FF46AAF099943F4806348781146A0F167
:102980003006092E40F221812A2800F02F81099279
:102990000026013259E74446C14501D809F1FF3804
:1029A0004B46424651460020D84720461BB0BDE862
:1029B000F08FA0F16902D2B20F2A3FD8012149F26B
:1029C00041079140394040F0F3800A2A3DD0072A60
:1029D00034D10A9D55F8042B002A00F0138143F0EE
:1029E000210012AB1F460B9303E0202900F0148155
:1029F0001A4602F00F042346092C94BF30333733B4
:102A00000F2A07F8013B01F101014FEA1213ECD83C
:102A100002E100BFB527001028210020051B00108F
:102A20000A99099851F8045B4078002DCDE90921F5
:102A3000BCBF43F002036D42013202E742464B46FF
:102A4000514608F10108D847D2E60A99002E51F8FC
:102A5000047B18BF3246387808BF4FF0FF32002899
:102A600000F07B83BC18A4463A4604E012F8014FFC
:102A7000002C00F03F819445F8D16446E41B5A05D0
:102A800040F12281B44228BF344613F0020300F023
:102A900088820223CDE90A5142461D46464408E099
:102AA0004B465146D84717F8010F08F1010810B1FD
:102AB00042464645F4D12B460B990A9D002B40F027
:102AC00041810A9194E6099948786C287FF4ECAE2C
:102AD0000A46887843F440730332E8E6099943F4E0
:102AE000007348780132E2E609994878682800F0D6
:102AF000038143F080030132D9E6672800F0D980D2
:102B0000472800F0DC80452800F0DB80CDE9035346
:102B10000A9B0296073323F007031C464246F4E85B
:102B200002674B4651465846CDE900670A94FFF7C5
:102B300087FB80465CE6462808BF43F02003CDE9CA
:102B400003530A9B0296073323F007031C464246B1
:102B5000F4E802674B4651465846CDE900670A94AF
:102B6000FFF70EF9804643E642464B465146252084
:102B700008F10108D8473BE60A9A990702F10404D4
:102B800008F1010640F1C68010784B464246514696
:102B9000D847012D88BFA84440F2BD8132464B463C
:102BA000514620200136D8474645F7D10A941FE602
:102BB0006F2800F0818040F24882782800F09081F0
:102BC0000A2723F01003BC4641E0002606EB8606E8
:102BD00000EB4600A0F1300611F8010FA0F1300221
:102BE000092AF3D90A46099101322EE6DDE90921C5
:102BF00051F8046B9078023209920A91013226EA68
:102C0000E67622E623F0100013F4806240F0210003
:102C10003FF4E7AE12AB0B930B9B06900093082397
:102C20001020059300234246CDE9023001914B4626
:102C3000514658460496FEF7B5FF0A958046D7E5FB
:102C4000582862D0622840F08F800227BC4613F4D7
:102C5000806000F0DD8023F00D0313F4007240F07B
:102C600081810A990F1D13F4807140F037825C0650
:102C70000A9A40F13B811278002A40F04E8123F0FD
:102C80001003002800F04981114612AA0B92CDE9E9
:102C90000553CDE903C601910B9B424600930023E7
:102CA0005146029358464B46FEF77CFF0A978046F2
:102CB0009EE543F4006329E70827BC46C7E743F4D1
:102CC000006343F0200321E713F0020300F08E813C
:102CD00002230A951E460D4642464B465146D847AA
:102CE00017F8010F08F101080028F5D129463346ED
:102CF0000A9DE3E6D41BC2E60A46887843F0C00387
:102D00000332D4E50446804646E6102743F020030C
:102D1000BC469CE7012D40F2F880464608F1FF379B
:102D20002F4432464B46514620200136D847BE42FA
:102D3000F7D10A9B3246187851464B46D847A844EB
:102D40000A9455E54646A5427FF6BBAEA844A8EBDB
:102D500004080C4632464B46514620200136D847DF
:102D60004645F7D12146ACE613F4806200F0BB8003
:102D70004FF4806223F0110C1CF400770A9B4AD1B7
:102D80001CF4807003F1040440F034811CF0400F07
:102D900040F0A3801CF0800F00F0D381B3F9001045
:102DA00081EAE177A7EBE177BFB2CB0F002900F012
:102DB00056813A4612A90F46DFF8D8E30B910A93E1
:102DC0000C9501E020280FD01546AEFB0213DB085E
:102DD00003EB8301A2EB41013031092D1A4600F1CA
:102DE000010007F8011BEDD80A9B0C9DCDE9055C9D
:102DF000CDE9010304960B9B424600930A235146FA
:102E0000039358464B46FEF7CDFE0A948046EFE406
:102E100023F00C0321E7073323F007031946084684
:102E20005B6850F8081BDF0F0A9051EA030062D17B
:102E3000002A40F09F811346114612AACDE90C7575
:102E400000201546CDE90E68DFF848E30B9201E05B
:102E500020282DD05A1842F10002AEFB027828F04B
:102E6000030707EB9807D21B1E469B1A61F1000768
:102E70000C464FF0CC3101FB03F10EFB0711A3FB15
:102E80000E731944052307F00108A8FB03389B18AB
:102E90000A2E03F130034FEA570774F1000405F8D6
:102EA000013B00F1010047EAC1734FEA5101CFD263
:102EB000DDE90C75DDE90E680B9B424600930A23A1
:102EC000CDE9055CCDE90107049603934B465146D5
:102ED0005846FEF767FE80468AE419780F4664E795
:102EE0001027BC46B3E623F0100C45E71C064CBF88
:102EF00012881268C0E60A46191E01DB13469CE7D9
:102F00005242134661EB410197E713465146187848
:102F100042464B46D847B04648E613F0200F14BF50
:102F20004120612012ACA6460B940A93A0F10A043A
:102F30000C9502E0202912D02A46B2FBFCF50CFBCE
:102F40001520C3B2092803F130008ABF1B19C3B290
:102F5000DBB262450EF8013B01F10101EAD20A9BA6
:102F60000C9D94E60A9A073222F00702516852F843
:102F7000084B8E460A9254EA010276D123F01003E0
:102F8000002872D00022114612AA0B92CDE90553F7
:102F90000B9B424600930023CDE903C601910293A7
:102FA00094E7A54298BF01347FF674AD4FF4806377
:102FB000CDE90A7505EB08021F460D46141B424673
:102FC0004B465146202008F10108D847A045F6D1CC
:102FD0003B460A9F294638780B9D6C1C00283FF41D
:102FE00070AD002B3FF475AE002353E5A542DFD84A
:102FF00001346EE61968CB0F002900F0A88081EA41
:10300000E172A2EBE17212A90846DFF888E10B91A8
:103010000A930C9501E0202F0FD01546AEFB02134A
:10302000DB0803EB8301A2EB41013031092D1A4685
:1030300007F1010700F8011BEDD80A9B0C9DCDE9B3
:10304000055CCDE901730496D5E6692823F0100CE0
:1030500040F08C8013F480623FF48EAE88E6002A44
:103060003FF4A8AE12AA0B92C0E613F0200F14BFD3
:1030700041226122002012A90A3ACDE90E68CDE969
:103080000C35CDF844B006468846754693460B91FC
:10309000CDF840C003E0202E17D004460D46294647
:1030A0003A46002320460BF08BFDD2B2092A02F1EA
:1030B000300388BF02EB0B03BC42DBB275F10005A5
:1030C00008F8013B06F10106E5D23146DDE90C3591
:1030D000DDE910CBDDF83C800E9E57E70A990968C0
:1030E00051B923F0100338B112A90B91CDE9055362
:1030F000CDE903C60192CFE513F0200F14BF4120A4
:10310000612012ACA6460B940A93A0F10A040C9518
:1031100002E0202A12D02946B1FBFCF50CFB151069
:10312000C3B2092803F130008ABF1B19C3B2DBB256
:1031300061450EF8013B02F10102EAD20A9B0C9DA7
:10314000D4E7196881EAE177A7EBE1772DE6002A59
:103150003FF459AF12AA0B9271E713F480640DD0BB
:1031600013F0020412D004464646ECE50A276346F3
:10317000BC466CE512AB00200B939DE613F00203F6
:103180007FF4E0AD002D7FF413AF9AE4002D7FF4BF
:103190000DAF96E4CDCCCCCC0EB410B585B007AC59
:1031A00054F8043B01464FF0FF3200940448039466
:1031B000FFF700FB05B0BDE8104003B0704700BF4B
:1031C000FD1A001010B5094B84B01C684CB10346C1
:1031D00000914FF0FF3203A90548A047012004B039
:1031E00010BD00F0D7F9204604B010BD2821002002
:1031F000791D001000BEFDE7074A0346106838B18C
:10320000064903448B428CBF4FF0FF301360704778
:10321000034908461160F3E7202100200000082040
:103220006C21002090B110B50446FEF77BF8084AE7
:10323000D2E90032C01A61EB02010023054A0BF00B
:10324000C7FCC4E90001A260002010BD0020704747
:10325000901D002040420F00002070474FF0FF30CB
:10326000704700BF03460846114623B9034BD3E914
:10327000002300F00FB94FF0FF30704700FF00103F
:10328000431E012B09D810B514460846012300221D
:10329000214600F089F8204610BD4FF0FF307047FE
:1032A0004FF0FF30704700BF4FF0FF30704700BF56
:1032B0004FF0FF30704700BF02288CBF0020012074
:1032C000704700BF08B5FFF795FF00BF38B5064C43
:1032D000064DFEF775F9AC4204D254F8043B98470A
:1032E000AC42FAD338BD00BF48EC001058EC0010D7
:1032F00003680846114618472DE9F0411546427DFE
:1033000007468846002A46D0002D1DDD0B780A2B83
:1033100023D0012D4FF0000C18D04646012416F89A
:10332000012F21460A2A04F1010422D0A542F6D138
:1033300065450BDC08EB050313F8013CA3F10D0315
:10334000B3FA83F35B093B75BDE8F0813B68A5EBFD
:103350000C0108EB0C009847ECE7037D002BD8D15B
:10336000036802210F489847012DE3D04FF0010C6C
:10337000D3E716F8013C0D2BD8D08C4508EB0C0098
:10338000A1EB0C0101DA3B689847022105483B6834
:103390009847A446CAE7294640463B68BDE8F04145
:1033A000184700BFC0FF00102DE9F04782B00D465E
:1033B00091461C460646FDF7B5FF4FF0FF3C6FF007
:1033C00000472E4A821841F10003944577EB030130
:1033D0003CBF62463B462A480BF006FC6B1C80460D
:1033E00040D00CB3274F284B1C68B4B1B9F1000F83
:1033F0001CD1DFF89C9001E0246974B12368002B94
:10340000FAD0D9F800300BB19C42F5D120462A46BB
:103410003146B8472469002CF0D1B8F1000F26D10D
:10342000284602B0BDE8F087184FDCE74FF00A0AE3
:10343000DFF85C9002E02469002CEED02368002BBA
:10344000F9D0D9F800300BB1A342F4D12A46314665
:103450002046B847012220460DF107018DF807A04C
:10346000B847E8E730460AF0B9FA0546B9E7044834
:103470000BF0AAFB284602B0BDE8F08740420F00DF
:10348000F81B0020F932001014210020F132001046
:103490001C2100202DE9F04F984607460E4683B0C8
:1034A000DFF860B0DFF86090DFF860A00192DBF831
:1034B000004014B911E024697CB1D9F800500DB175
:1034C000A542F8D1A268002AF5D031463846904787
:1034D0000028F0DD03B0BDE8F08FDAF82420904535
:1034E0000BD8DAF82810019B994204D36FF0010041
:1034F00003B0BDE8F08F9045F8D101200021FDF721
:103500001BFFD4E7142100201C21002000000B40E9
:10351000F0B583B006468DF80700FDF703FF4FF0C6
:10352000FF356FF00044174A821841F100039542BD
:1035300074EB03013CBF23462A4613480BF054FBAF
:10354000124B07461C689CB1114D01E024697CB107
:103550002368002BFAD02B680BB19C42F6D1204691
:1035600001220DF10701FFF7C7FE2469002CEFD1FE
:1035700017B9304603B0F0BD03480BF025FB3046C9
:1035800003B0F0BD40420F00F81B002014210020C2
:103590001C21002038B504460AF020FA0123054614
:1035A0001A4620462946FFF7FFFE084B1C682CB13F
:1035B00063682BB198472469002CF9D1284638BD9F
:1035C0002469002CF4D1284638BD00BF1421002006
:1035D00010B50446082000F0EFFC2146044601F037
:1035E000AFFC054A2046054901F05CFA204600F090
:1035F000FBFC00F081FD00BFA94D0010600201102E
:1036000010B50446082000F0D7FC2146044601F01E
:10361000D7FC054A2046054901F044FA204600F04F
:10362000E3FC00F069FD00BF714E00108002011044
:103630002DE9F04397B098461368054602AF10A8ED
:103640001B6987E806001146029A98470223002268
:1036500010A800931146374B00F0F8F906460DF11B
:1036600030090446CDF8289056F8083BB34245D0BF
:103670000A9383680C93266000266368404626728E
:1036800066600B930AF0AAF9434600903246314631
:103690000AA800F0DBF906460DF118080446CDF83B
:1036A000108056F8083BB3422FD0049383680693EA
:1036B0000023626804A9284626602372636005928D
:1036C00001F0EAFC0498404501D0FEF713FA0A988D
:1036D000484501D0FEF70EFA109812AB984201D07F
:1036E000FEF708FA2B46144A97E8030043F8082B24
:1036F00083E80300284617B0BDE8F08342683146EE
:10370000484601320AF0F4F8B5E7426831464046CF
:1037100001320AF0EDF8CBE703E005E004A800F081
:10372000ABF80AA800F0A8F810A800F0A5F800F07F
:10373000E3FC00BF28ED001080000110704700BFBF
:1037400010B40123084C0246016081EA917104FB28
:1037500001310133B3F51C7F42F8041FF5D15DF848
:10376000044BC0F8C03970476589076C70B5D1E962
:10377000006584B00446072D24D0042D02D133788F
:10378000702B34D001A90022304609F05DFB33785C
:10379000014613B1019B1B78E3B1102000F00CFC33
:1037A000044600F0F5FA1622194BCDE9022004AACE
:1037B000204612E90600FFF73BFF164A204616494D
:1037C00001F070F92A461549304609F09FFC30B9DE
:1037D00041F271512046FFF7B3FF04B070BD2A4695
:1037E0000F49304609F092FC0028F1D0CAE77378FF
:1037F000721C722BC6D112F8013F6E2BC2D15378C6
:10380000672BBFD1E4E7204600F0EEFB00F074FC2C
:103810003CED0010A13C0010FCFF001058EC001023
:103820002CED0010FFF7A2BF0868B0F1804F08B57B
:103830001DD2904204D9B0EB420F4FEA420304D3A9
:103840000130BDE80840FEF753B9B3F1804F08D30B
:103850006FF040434FF080400B60BDE80840FEF73A
:1038600047B9581C0B60BDE80840FEF741B9014854
:10387000FFF7C6FE70ED0010034653F8080B9842A0
:1038800001D0FEF737B970472DE9F04F83B0476894
:103890009A468146DDF830B08E180D4601A9ABEB93
:1038A000020304463B44BF1B019359F8083B99456A
:1038B00014BF82680F22FFF7B7FF80462DB1012D9C
:1038C000216829D02A460AF013F8BAF1000F0BD06C
:1038D000BBF1000F08D0BBF1010F08EB050022D0AF
:1038E00051465A460AF004F857B15D442368012F47
:1038F00008EB050003EB060111D03A4609F0F8FF8A
:103900002068814501D0FEF7F5F8019BC4F80080DE
:10391000A36003B0BDE8F08F0B780370D5E79B5D23
:1039200008F80530ECE79AF8003008F80530DBE7D6
:1039300070B5054682B0044655F8083B01919D429A
:10394000019B14BF82680F22934201D802B070BD60
:1039500001A9FFF769FF6368216806465A1C73B125
:103960003AB90846FEF7C6F8019B2660A36002B08C
:1039700070BD09F0BDFF21688D42F2D1F4E70B78EC
:103980000370F8E72DE9F041069F1D469046079E1B
:103990007B1E0C469A4209D9012F02D12B780B705D
:1039A00004E03A462946204609F0DEFB76B1474559
:1039B0004AD0012E04EB070004EB080103D114F8F0
:1039C0000830E35502E0324609F0CEFB47453BD9CB
:1039D00004EB0806EB199E420BD3012F02D12B7882
:1039E000237031E03A4629462046BDE8F04109F00F
:1039F000BBBBAE4210D82D1BA7EB0802012F15440C
:103A000004EB050102D1635D23701DE03A462046B8
:103A1000BDE8F04109F06CBF761B012E02D12B7876
:103A2000237004E032462946204609F09DFBBA1B6C
:103A3000A019E119012A02D1E35DA35504E01AB1EE
:103A4000BDE8F04109F054BFBDE8F0812DE9F04731
:103A500004466FF0404082B00F46104461680A9EF1
:103A6000401A86424CD898462346B51A53F808ABFC
:103A70000D449A4514BFA3680F239D422DD8D31936
:103A8000C2450AEB0709A1EB03031BD953B1B242AC
:103A900008D0012B09EB060009EB020129D01A46D8
:103AA00009F062FB36B1012E1ED03246414648462F
:103AB00009F01EFF23680022204665605A5502B0B7
:103AC000BDE8F08751448845E0D8CDE90063494618
:103AD00043462046FFF756FFECE74346394620466B
:103AE0000096FFF7D1FEE5E798F800300AF80730B6
:103AF000E0E719F8023009F80630002EDAD0D2E7F4
:103B00000148FFF77DFD00BF88ED001000487047B9
:103B1000A4ED00101368994201D00020704753684B
:103B2000181AB0FA80F04009704700BF704700BF14
:103B300000487047ACED0010742A10B41CDC572A02
:103B40000FDC4D2A13DC3B2A28DC242A21DC0F2A37
:103B500001DC0E2A0BD8154BC0E900235DF8044B9D
:103B60007047A2F15804124BE340DC07F3D45DF830
:103B7000044BC0E900217047A2F17603182BF6D858
:103B80000C4C24FA03F3DB07F1D5084BC0E9002302
:103B9000E4E7A2F12D03012BDDD9E8E7A2F13C0413
:103BA000054BE340DB07E2D5D5E700BF84160020D4
:103BB0009D00BF1FBF07F1018F080200704700BFC3
:103BC000C0E90021704700BF4B68834201D000204C
:103BD00070470868801AB0FA80F04009704700BF4B
:103BE000704700BF704700BF2DE9F04300F10803A4
:103BF0004FF0000885B03C2704469146C0F8048089
:103C000080F8088003600BE02B7803B3284609F0A6
:103C1000E5FE06462368666003F80680636893B98C
:103C200039462046FFF784FE25683A46484629462D
:103C300085F8008009F032FC0028E7D02228E3D183
:103C40007F000026E6E7204605B0BDE8F0830D4B77
:103C5000EC46EE460D260FCBACE80700ACF8003082
:103C60002B73BEE8070028606960AA60D2E720468F
:103C7000FFF702FE00F040FA002322686360137031
:103C8000F5E700BFB4ED001010B50446FDF732FFB4
:103C9000204610BD10B50446FDF72CFF204610BD90
:103CA000034B10B50446036001F09EF8204610BD9A
:103CB00080000110054B10B50446036001F094F834
:103CC0002046FDF717FF204610BD00BF8000011001
:103CD0000B6810B586B004461B69684698472046B5
:103CE000DDE9001201F076F9009802AB984201D0AC
:103CF000FDF700FF204606B010BD6846FFF7BCFD8B
:103D000000F0FAF9742910B41BDC572924DC4D2982
:103D100008DC3B292CDC242925DC0F2901DC0E29B9
:103D200000D817485368834203D000205DF8044B45
:103D3000704710685DF8044B401AB0FA80F04009F3
:103D40007047A1F17603182BECD80E4C24FA03F33C
:103D5000DB07E7D50A48E5E7A1F158040A4BE34041
:103D6000DC07DFD5DDE7A1F12D03012BD9D9D9E798
:103D7000A1F13C04054BE340DB07D3D5D1E700BFFD
:103D800084160020BF07F1019D00BF1F8F080200AD
:103D900000487047841600200649074A074808B5BE
:103DA00000F012F8044A06490648BDE8084000F051
:103DB0000BB800BFE13B0010601600208416002005
:103DC000E53B0010801600200B460146184609F01E
:103DD000AFBB00BF036870B5002484B09E69102398
:103DE0001546039402936B461268CDE90044B04730
:103DF0009DF8043003F00603062B04D1009B01203C
:103E00002B6004B070BD204604B070BD0098904295
:103E10000CBF062001207047034B10B50446036019
:103E200000F022FF204610BD14010110054B10B513
:103E30000446036000F018FF08212046FDF75CFEF1
:103E4000204610BD140101102DE9F041069F1D46CA
:103E500004469046DDE908369F420CD029462046AC
:103E600000F006FF20B10123376086F80480B371AB
:103E70000020BDE8F081079900F0FAFE0028EDD09F
:103E8000002086F80580BDE8F08100BF38B51546F2
:103E90001C4600F0EDFE00B938BD0822062325605F
:103EA000E260237138BD00BF2DE9F0410646174698
:103EB0001D460C4600F0DCFE48B9032D07D82368E8
:103EC0003A46314620465B69BDE8F0411847BDE8F7
:103ED000F08100BF20494A6830B5A0F1080432B330
:103EE00050F8085C04EB050E724520D8536825D0C5
:103EF00073B301F1040C05E0596802F1040C1A4691
:103F000051B10B469E45F7D820D1536819685B68BC
:103F10000D445360DCF800301A6899188C420AD0BE
:103F20005B6840E90253DCF800305C6030BD40F86B
:103F3000042C4C6030BD2A441A6030BD126840F831
:103F4000043C2A4440F8082C4C6030BD1346E3E79B
:103F5000134601F1040CDFE7001C002000F1080308
:103F60001449082B486838BF082308B307330431C5
:103F700023F0070302E0011D406890B102689342FC
:103F8000F9D80868026870B4D41A4668072C09D9B1
:103F9000C5186E60C4500868036008300D6070BCBE
:103FA000704770473546026008300D6070BC70473E
:103FB000704700BF001C002010B500F180042046AF
:103FC000FDF770FD38B1034680220021184609F044
:103FD00049F9803010BD2046FFF7C0FF0346002896
:103FE000F2D100F0FFFC00BF064B8038D3E902237A
:103FF0001344984203D2824201D2FFF76BBFFDF710
:1040000075BD00BF001C0020F0B50026354D89B0FD
:104010003548EE60C5E9016608F01EF90822334B09
:1040200009210496CDE90223314A0423CDE9051282
:104030000793002836D0044623780F222D483A2BC8
:1040400008BF0134214609F061F810B9E37B2E2B3B
:1040500016D020463A2109F053F904460028EBD146
:10406000079A049C402AA8BF4022002C08BF0624BF
:104070003E3402FB04F4A400EC60BCB909B0F0BD0E
:10408000103402AE376821463A461FB1706809F015
:104090003DF810B9E35D3D2B12D00C3608AB9E42C3
:1040A000F0D1D6E74FF488631C46EB602046FDF75D
:1040B000F9FCA860A0B100236860C0E90043DDE717
:1040C000781C002201A9204408F0BEFE019C237840
:1040D0003A2B01D0002BBCD10028A8BFB060B8E7B4
:1040E000E860CBE7001C0020C4ED0010D8ED001004
:1040F000E4ED0010F0ED00101EB400F08DF81EBCD1
:104100000AF056FDF0B51D46037883B00C46472BE8
:1041100019D00020254E3368019030469B6898479F
:1041200078B1019B02271B68019323682046314622
:1041300001AA1C690123A04720BB0746384603B0EB
:10414000F0BD0127F1E743784E2BE2D18378552B60
:10415000DFD1C378432BDCD10379462B1BD0432B13
:10416000D7D143792B2BD4D183792B2BD1D1C379C0
:10417000012BCED84FF0000350F8206C019306D0ED
:104180005830C8E7019B38462B6003B0F0BD30467D
:1041900056F8786CBFE743794F2BBAD18379522B0D
:1041A000B7D1C0790028B4D1014EB4E7BC010110E9
:1041B0009001011010B5044600F0FCF8224612F8F8
:1041C0002039472B04D0836823BB8260012010BDB7
:1041D00063784E2BF7D1A378552BF4D1E378432B9A
:1041E000F1D12379432BEED163792B2BEBD1A3793A
:1041F0002B2BE8D1E379012BE5D854F8043C0133AB
:10420000012B44F8043CE1D1836844F8083C826007
:10421000012010BD00F0E6FB08B500F0CBF8836884
:1042200083B393F82020472A04D00022826003F150
:10423000200008BD93F821204E2AF6D193F82220C1
:10424000552AF2D193F82320432AEED193F8242063
:10425000432AEAD193F825202B2AE6D193F8262089
:104260002B2AE2D193F82720012ADED8DA69013A15
:10427000DA61002ADBD199690022816003F1200014
:104280009A6108BD00F0AEFB38B5044600F092F824
:104290000568224612F82039472B03D085BB0260FF
:1042A000284638BD63784E2BF8D1A378552BF5D12D
:1042B000E378432BF2D12379432BEFD163792B2B76
:1042C000ECD1A3792B2BE9D1E379012BE6D854F873
:1042D0000C3C002B11DB013344F80C3C9542436845
:1042E00003F1FF33436002D044F8105C0260656A5A
:1042F00020460AF071FC284638BDC3F10103EBE704
:1043000000F070FB08B500F051F80246006870B389
:1043100090F82010472906D000212030BDE8084041
:1043200011600AF035BC90F821104E29F4D190F8B4
:1043300022105529F0D190F823104329ECD190F8A0
:1043400024104329E8D190F825102B29E4D190F8C6
:1043500026102B29E0D190F827100129DCD84169DB
:10436000002905DB013908D04B1C0DD0416108BD87
:104370000131FBD103691360F8E701692030BDE822
:10438000084011600AF004BC00F02CFB704700BF2D
:10439000704700BF0048704700EE001010B504469B
:1043A0000421FDF7A9FB204610BD00BF004870475F
:1043B000981D002000487047981D0020502870B5B7
:1043C0001DD0844600F00F000C2855D8DFE800F01F
:1043D000074426071E545454542A22071E00104630
:1043E00050F8046B4EB10CF07004102C08BF11464D
:1043F0001CF0800F0E4418BF36681E6070BDD01CC4
:1044000020F0030050F8046B1E6070BD104650F899
:10441000086BE7E7104630F9026BE3E7104630F827
:10442000026BDFE700261046344610F8015B05F00A
:104430007F0E15F0800F0EFA04FE04F1070446EA21
:104440000E06F2D11F2CCDD86D06CBD54FF0FF351F
:1044500005FA04F42643C6E700261046344610F851
:10446000015B05F07F0E2D060EFA04FE04F1070431
:1044700046EA0E06F3D4B5E707F0E6FEFF2808B5D6
:10448000034612D003F070030846302B13D005D832
:10449000202B09D1BDE808400AF08EBB402B06D185
:1044A000BDE808400AF09CBB03D8002008BD502B93
:1044B000FBD007F0C9FEBDE808400AF099BB00BF79
:1044C000F8B50C460646154608B10AF089FB286087
:1044D00014F8017BFF2F28D16860204610F8012BCB
:1044E000FF2A32D00024102322462B7510F8011B1E
:1044F00001F07F03090603FA02F302F1070244EA1E
:104500000304F3D403190024EB6010F8013B2246A6
:104510006B7510F8011B01F07F03934007321C43B9
:104520000B06F6D404442C61F8BD31463846FFF73B
:10453000A5FF224601462B1D3846FFF73FFF0446E4
:10454000204610F8012BFF2ACCD100232A75DAE788
:104550002DE9F04F002399B08846174603930E9338
:1045600000F00303012B00F0AB80022B0AD1394687
:1045700040460AF015FB002840F09780082019B04B
:10458000BDE8F08F002B40F01E8210F00804EED141
:1045900012AB01250493049B0C223846CDF84880C9
:1045A0000093002319460AF027FB38460AF0F4FA74
:1045B00006900028DBD044EA0503049A06993846A1
:1045C00005930DF14409039B8DF85C300023CDE980
:1045D0001533FFF775FF159B05469DF85C003946BE
:1045E000169C09930390FFF749FF0023089014904D
:1045F0000F2219463846CDF800900AF0C5FA119BF3
:10460000A54223F0010303F1FF3B33D29DF85D6027
:10461000DDF848A000213046FFF730FF2A4601466A
:104620000FAB3046FFF7CAFE054600213046FFF7C4
:1046300025FF2A46014610AB3046FFF7BFFE054670
:1046400000213046FFF71AFF2A4601464B46304606
:10465000FFF7B4FE05460020024615F8011B01F0E5
:104660007F039340073218430B06F6D40F9B534445
:104670005B451ED9059BDC0729D500250E9B2E46E0
:104680001C46002338460D22CDF8009019460AF04A
:104690007BFA069B0620C8F82440C8F82850C8E9D1
:1046A0000B36119BC8F8203069E7092019B0BDE826
:1046B000F08F109A13445B4560D8A542AAD3D9E77E
:1046C00010F008040AD012AB0493022563E7059B9F
:1046D000180700F17681404607F02DFD12AB0D6AF8
:1046E0000D22384604930093039B19460AF04CFAB6
:1046F000129B9D42E9D13846CDF84880DDE903326E
:10470000009219460C220AF077FAD8F83060002E91
:10471000E1D00DF14409D8E90A530693002DC0F207
:104720000881032400233846CDF800901A46194624
:10473000CDF844800AF060FA002301223846CDF813
:104740000090194611950AF057FA00230F223846B7
:104750001946CDF800900AF017FA119A002338464E
:1047600002F00102CDF800901946324311920F2257
:104770000AF042FA022C70D0072000E7119E002EAA
:104780003FF4F5AE139A1644002800F0FB80013880
:104790000444002E3FF4EBAE059B13F0080200F03A
:1047A000FC808A4BC8F80030894BC8F80430B8F157
:1047B00000034FF0010BDDF824A018BF0123002AED
:1047C00018BF00230A9300230793039B03F00703FA
:1047D000CDE90B670D9300252A4614F8011B01F063
:1047E0007F03080603FA02F302F1070245EA030514
:1047F000F3D41F2A05D84B0603D50BFA02F35B420C
:104800001D4300262046324610F8011B01F07F03AD
:104810000F0603FA02F302F1070246EA0306F3D495
:104820001F2A33D8490631D50BFA02F35B421E43E7
:10483000002D67D0059B022B0DD0002D2CDC6FF0D6
:1048400040435B1B0AEB83075AF823100A9B002B9B
:104850005CD199B12EB13444BDE74046FFF7AAFCC4
:104860008AE7079BDDE90B67002B3FF480AE059BD1
:10487000DD073FF57CAE0025022453E7059BDA07F0
:10488000DDE90B6719D50E9B1C46FAE685B1059B41
:10489000022BDFD0002DD2DD039BFF2B70D00D9AB1
:1048A000042A00F29080DFE802F00D8E2A0D270026
:1048B00001230793002ECED1D3E7002D3FF431AF73
:1048C00000F09CF8AAEB850208994B460398FFF785
:1048D00075FD119949B1B8F1000FBBD00EAB0022A4
:1048E0004046FFF70FFC0028B4D0059BD907DDE94F
:1048F0000B677FF516AFC6E7AAEBC502E4E7AAEBA4
:104900004502E1E701233444079364E70E9B1193CA
:1049100021B94CE057F8041F002937D039444B46E1
:1049200000224046FFF7EEFB0028F3D0002E92D184
:1049300097E7099B3846049A1593039B06998DF8CF
:104940005C30FFF7BDFD39469DF85C00159CFFF714
:1049500095FD6FF04042521B54F8223004EB820464
:1049600033B12246002352F8041F01330029FAD143
:10497000C8F83440C8E90A300423C8F83030D0E61B
:104980005246A1E7002E7FF472AFF0E5059BDB07EE
:10499000DDE90B677FF5C2AE75E798F80730012BAC
:1049A0000CBF58F8203C08F158030E93FFE61C4654
:1049B000059BDB07DDE90B673FF563AEAEE6FFF76E
:1049C00063FC00F00FF807F03FFC00BF474E554373
:1049D000464F520008B5804707F036FCFFF754FCFD
:1049E00007F032FC08B5024BD3E8AF0FFFF7F2FF38
:1049F0008C16002008B58047FFF7F4FF08B5024B7E
:104A0000D3E8AF0FFFF7F6FF88160020014BD3E87D
:104A1000AF0F70478C160020014BD3E8AF0F7047E3
:104A200088160020012810B516D8A1F12803D3E874
:104A3000EF2F013AC3E8E02F0028F8D15AB951F816
:104A40001C3C01F158040BB1204698472046BDE8B4
:104A50001040FFF7C9BA10BD51F8140CFFF7BAFFA8
:104A6000002310B5044640F8803C40E91E12FFF7D1
:104A7000D3FF44F8700CFFF7C9FF0749074A084BFA
:104A800044F86C0CA4F1800044F8581C44F8542CF1
:104A900044F8503C10BD00BF474E5543432B2B00FC
:104AA000254A001070B504460D461646FFF782FCF5
:104AB00003462046324629465C6801345C60FFF7B5
:104AC000CFFF0123044644F8283B20460AF098F81B
:104AD0002046FFF7D9FBFFF785FF00BF10B5FFF7B2
:104AE00069FCD0E900420132426064B194F82020B0
:104AF000472A0AD000220260203420460AF054F8E7
:104B00002046FFF7C1FBFFF76DFF94F821204E2AE6
:104B1000F0D194F82220552AECD194F82320432A8E
:104B2000E8D194F82420432AE4D194F825202B2AB4
:104B3000E0D194F826202B2ADCD194F82720012AF2
:104B4000D8D8626952426261D6E700BF034B10B504
:104B500004460360FFF760F9204610BD14020110FF
:104B6000054B10B504460360FFF756F90C212046AB
:104B7000FCF7C2FF204610BD1402011070B582B0D0
:104B800004460D46069E964209D0A0682946046850
:104B90000696246AA44602B0BDE8704060471946F4
:104BA0000192009300F064F8DDE900320028ECD0B7
:104BB000062002B070BD00BF2DE9F04F81B00D4658
:104BC00019461C4607461646DDE90A8BDDE90CA9A5
:104BD00000F04EF880B9D04527D0B8682346324659
:104BE00029460468CDE90CA9CDE90A8BE469A446FD
:104BF00001B0BDE8F04F6047002DC9F8008089F88A
:104C000004600CDBA844C24514BF4FF001084FF00C
:104C1000060889F80680002001B0BDE8F08F023553
:104C2000F9D1012389F80630F5E75946384600F0F6
:104C30001FF80028D1D089F80560ECE72DE9F04194
:104C400007460C4615461E46FFF720F948B9B868D6
:104C5000214633462A460468A469A446BDE8F041CB
:104C60006047BDE8F08100BF704700BF002070477B
:104C7000814211D0406808B503782A2B0AD04968D0
:104C80000B782A2B08BF013108F0AEFCB0FA80F097
:104C9000400908BD002008BD012070473A4B1A7832
:104CA00070B582B0002A3ED101241C7007F0BEFA14
:104CB00078B3446800224FF0FF30344D237811461A
:104CC00001902A2B01AB08BF0134204607F0B6F94A
:104CD0002B6830220121DB6806462D4807F04EFE86
:104CE0002A68019BD16883B1204608F007FA2B6837
:104CF000022201212748DB6807F040FE019B13B91F
:104D00003046FCF7F3FEFFF7E9FE304608F0F6F90F
:104D1000EDE71E4B2D2221461F481B68DB6807F07C
:104D20002DFE07F091FA194B1D2201211B481B682B
:104D3000DB6807F023FE07F087FA01290C4619D13A
:104D4000FFF7A2FA03689B6898472B6821460B225D
:104D50000446DB68124807F011FE2B682046D9682C
:104D600008F0CCF92B680A20D96808F047F9FFF75A
:104D7000C9FAD6E7FFF788FAFFF7C4FAD1E7FFF7D9
:104D8000C1FAFFF7B9F900BF68210020AC1A002072
:104D900034EE001068EE00106CEE001014EE0010FF
:104DA0009CEE0010406870470D4943680D4A10B5ED
:104DB000044682B00160A3F10C00904205D1204668
:104DC000FFF7E4FA204602B010BD53F8042C511E40
:104DD000002A43F8041CF2DC01A900F05BF9EEE7BD
:104DE000B4020110A41D00200D4943680D4A10B5FE
:104DF000044682B00160A3F10C00904205D1204628
:104E0000FFF7C4FA204602B010BD53F8042C511E1F
:104E1000002A43F8041CF2DC01A900F03BF9EEE79C
:104E2000DC020110A41D00200F4943680F4A10B591
:104E3000044682B00160A3F10C00904208D12046E4
:104E4000FFF7A4FA2046FCF755FE204602B010BD3D
:104E500053F8042C511E002A43F8041CEFDC01A96E
:104E600000F018F9EBE700BFDC020110A41D0020E0
:104E70000D4943680D4A10B5044682B00160A3F1A4
:104E80000C00904205D12046FFF780FA204602B080
:104E900010BD53F8042C511E002A43F8041CF2DC08
:104EA00001A900F0F7F8EEE7B4020110A41D0020FC
:104EB0000F4943680F4A10B5044682B00160A3F160
:104EC0000C00904208D12046FFF760FA2046FCF71C
:104ED00011FE204602B010BD53F8042C511E002ACA
:104EE00043F8041CEFDC01A900F0D4F8EBE700BFA5
:104EF000B4020110A41D00200F4943680F4A10B5E9
:104F0000044682B00160A3F10C00904208D1204613
:104F1000FFF73CFA2046FCF7EDFD204602B010BD3D
:104F200053F8042C511E002A43F8041CEFDC01A99D
:104F300000F0B0F8EBE700BFB4020110A41D0020A0
:104F40001B4BF0B5044683B0036071B308460D46B1
:104F500008F044FD0646A8B101AA002100F070F84F
:104F6000012E074600F10C0311D01846294632469F
:104F700008F0BEFC03460F4A97420BD120466360FF
:104F800003B0F0BD0C4B2046636003B0F0BD2A783F
:104F90000273F0E700223E603E44BA603273EDE7F0
:104FA0002046FFF7F3F9FFF7A7F80448FEF710FBD8
:104FB000B4020110A41D0020B01D0020A8EE0010B6
:104FC00010B50446FFF7BCFF014B2046236010BD1F
:104FD000C8020110F0B5054683B0E2B10E4629B310
:104FE0001446002101AA204600F02AF8012C0746A9
:104FF00000F10C030CD018463146224608F078FC2C
:1050000003460C4A97420BD128462B6003B0F0BDF3
:1050100032780273F5E7084B28462B6003B0F0BDE9
:1050200000223C603C44BA602273EDE70348FEF77F
:10503000CFFA00BFA41D0020B01D0020A8EE001074
:10504000124B984210B51DD88842044612D94A0026
:10505000904238BF144604F11D02B2F5805F09D9B1
:10506000A14207D204F58054C2F30B02A41A9C4259
:1050700028BF1C4604F10D00FCF73AFD0022C0E9F0
:10508000014210BD0248FEF7BBFA00BFFCFFFF3F24
:10509000D4EE0010FCF72EBD074B10B5D1E900127D
:1050A000044640F8043BFFF795FF204610BD20461C
:1050B000FFF76CF9FFF720F8DC0201105029844655
:1050C00070B53BD834295BD829290AD9A1F12A0027
:1050D000082831D8DFE800F0171615301517172EFD
:1050E00016000A2924D9A1F10B000124C0B2844082
:1050F0002B482040F0B92B48044204D12A482040D4
:10510000A8B1CAB1C3B1DCE90540844214DADCF8C5
:10511000105004EB840E0026013405EB8E00C0E92C
:105120000166CCF8144005F82E10C0E9032370BDC9
:105130000429E6D9002AE6D1002070BDA1F1520071
:105140000C28F7D801A454F820F000BF0751001034
:105150000751001035510010055100100551001085
:105160000351001035510010355100100751001047
:105170003551001035510010355100100351001009
:10518000A1F135000124C0B2844008482040002825
:10519000D0D1074820400028B3D14F29B3D070BDEB
:1051A000FE1F005F00C07F00010080000711C701E3
:1051B000F82E000A70B5D0E905439C421ADA04EBD8
:1051C0008403066984460134002506EB83004FEA18
:1051D000830EC0E90155CCF8144059B1AA42CCBFA6
:1051E0000023012333B9C0E9013306F80E30C0E9CA
:1051F000031270BD002070BDC268014670B51378FF
:105200006E2B23D0303BDAB2092A28D800260020A2
:105210006FF0004E134C07E0CB685A1CCA605B78F5
:10522000303BDAB2092A0DD8AEEB030200EB800C5A
:10523000A4FB0252B0EBD20F03EB4C00ECDD4FF0BD
:10524000FF3070BD002EFCD0404270BD531CC360C7
:105250005378303BDAB2092A01D80126D7E700207B
:1052600070BD00BFCDCCCCCC10B5044651B168297F
:1052700022D02046FFF7C0FFE3681A785F2A0ED0DD
:10528000002010BDC3681A78002AF9D05A1CC260E9
:105290001B78682B10D0762BEBD00020F1E7013380
:1052A0002046E360FFF7A8FFE3681A785F2AE7D19A
:1052B00001330120E36010BD2046FFF79DFFF3E7B7
:1052C00030B4C4680A462178522904D04F2902D04C
:1052D000104630BC70475229C56A08D003352021DA
:1052E0000134C5620023C46030BCFFF7E7BE02355D
:1052F0001F21F5E7C3681A785F2A01D001207047A3
:105300005A1C10B5C26004465A785F2A05D0FFF7D0
:1053100073FF002810DB012010BD0233C360FFF7CC
:105320006BFF002808DB0928F5DDE3681A785F2A9F
:1053300002D10133E360EEE7002010BD002971D0F7
:1053400038B505460C46A268012A34DCD5F81C01A4
:10535000B0F5806F2FDC23780132422BA2602BD86E
:10536000232B19D8013BDAB2222A24D8222B22D8A7
:10537000DFE803F03636365121211E1E363636362A
:1053800036363636363636363636362136363636D2
:105390003636363636363600A3F124010122C9B23C
:1053A0008A4021491140D9B992072AD1342B02D120
:1053B0002469002CC7D138BD453BDBB2192BFAD884
:1053C000012202FA03F3194A1A404AB9184A134251
:1053D00002D113F0180FEED0E468002CB3D1EAE745
:1053E000E168431C2846C5F81C31FFF7A7FF216977
:1053F0002846FFF7A3FFD5F81C31013BC5F81C3147
:1054000038BDE1680B78052BEBD1D5F83831013385
:10541000C5F83831E5E7D5F84431E1680133C5F81E
:105420004431DEE7704700BFEC7DFE7FC16F0002B4
:1054300006100400034658B1002004E0DA682AB1DF
:105440001B6901301BB11A78302AF7D070477047BA
:10545000704700BF20B907E039B10069013930B1A8
:105460000378302BF8D000207047C0687047704731
:10547000F0B54B1C1446526883B0A5680E46134421
:105480000746AB4211D8E5686DB9636832462068BB
:105490003946184408F02CFAD4E9003233449D54BC
:1054A00063683344636003B0F0BDE268002AFAD158
:1054B00055B16D00AB42FCD829462068FCF704FBCF
:1054C00038B12060A560DEE7022B4FF00205F0D86E
:1054D000F2E701902068FCF709FB019B0122C4E977
:1054E0000033C4E90232DEE703784B2B16D00DD827
:1054F000442B15D14378A3F1770003F0DF034F2B42
:1055000018BF012894BF012000207047562B05D0FA
:10551000A3F17200B0FA80F0400970470120704793
:105520000020704770B50D46D0F800110446FF29E1
:1055300006D04B1CC4F80031655484F8045170BD8A
:105540000026D0E9423280F8FF609847D4F828213D
:10555000012331461A44C4F80031C4F828216554A7
:1055600084F8045170BD00BFD0F810318BB15A6877
:10557000CB681069002B0BDB20B906E03BB100695A
:10558000013B10B10278302AF8D000207047C06883
:1055900070470123C0F81831F7E700BF2DE9F04745
:1055A000044608460D4608F019FA78B3013DD4F8D0
:1055B00000114FF000094FF001082F1808E0554680
:1055C000591CAF42C4F80011E65484F804611DD0A0
:1055D000FF296E7805F1010A0B46F0D1204684F8C8
:1055E000FF90D4E942329847D4F82831BA45C4F83C
:1055F000008103F1010226704FF0010384F8046179
:10560000C4F8282102D015F8026FD9E7BDE8F08769
:10561000002956D038B505460C462378342B1ED8C1
:10562000342B25D8DFE803F02C242424242E2C2925
:105630002924242424242424242424242424242425
:105640002C24242424242424242424242424242412
:105650002C242424242424242424242C2900433BE3
:10566000DBB21C2B04D8184A22FA03F3DB0707D459
:10567000E1682846FFF7CCFF18B92469002CCCD18B
:10568000002038BDD5F81031BBB15A68E368106905
:10569000002B0BDB28B9F3E73BB10069013B002885
:1056A000EED00278302AF7D0EAE7C0680028E7D0C9
:1056B0000378302BE5D00020E3E70123C5F818314B
:1056C000DEE70020704700BFE30C0010C26838B569
:1056D0001378542B24D1531C0446C36052785F2A9C
:1056E00020D06E2A1CD0FFF787FD411C18D4E36838
:1056F0001A785F2A14D10133D4E90520E36082428D
:105700000EDA236902EB820C0025013203EB8C00D8
:10571000C0E901556261052203F82C20C16038BD43
:10572000002038BD0021E6E72DE9F04788B00A46A1
:1057300004461E4901A8FDF72FFD01A808F04EF907
:1057400080B301AED4F800114FF000094FF001080A
:1057500006EB000A08E02E46591CB245C4F80011B9
:10576000E75484F804711DD03546FF290B4615F81F
:10577000017BF0D1204684F8FF900236D4E9423212
:105780009847D4F828315545277003F1010284F871
:1057900004714FF00103C4F80081C4F8282101D03E
:1057A0002F78D9E708B0BDE8F08700BFECEE001015
:1057B00070B50446FFF720FD051E25DDE668636829
:1057C0009B1B9D4227DCA26873195207E36002D538
:1057D000725D242A1AD0092D0FDD08221C4930469B
:1057E00007F094FC48B9337A5F2B18BF2E2B01D0F9
:1057F000242B02D1737A4E2B0FD02A4631462046F5
:10580000FFF7D8FCA06270BD002070BD0133092DE8
:10581000E360E2DCF1E70020F4E7E26AD4E9053175
:1058200016328B42A2EB0502E262F4DA226903EB44
:105830008300013307498500636102EB8000002388
:10584000C0E9013353551523C0E90313DAE700BF5C
:10585000F0EE0010FCEE0010C3682DE9F0411A785C
:10586000532A1FD15A1C0446C2605878F0B9A36865
:1058700003F00802C3F3C00383F00103DE075ED523
:10588000CB075CD5E3681B78433B012B8CBF00251D
:1058900001255B4B03F1C4011A78824251D01C33BD
:1058A0008B42F9D100252846BDE8F0819A1CE260C0
:1058B0005878A0F1300C5FFA8CF3092B0BD85F28D5
:1058C00015D10023226A9A42ECD9E26952F823509A
:1058D0002846BDE8F081A0F15F02B2FA82F25209D7
:1058E000002AECD1A0F14103192B08D9BFE700220F
:1058F00005E0E56008785F28A0F1300C1DD05FFA64
:105900008CFC02EBC203BCF1090F00EB830309D846
:10591000303B9A421A46C5D8E16808784D1C0028E9
:10592000C0D0E6E702EBC203A0F1410100EB830324
:105930001929A3F13703ECD9B4E70133C2E7D5083D
:10594000A7E75E69D4E90520AEB18242D3F818809A
:1059500054DA276902EB820C4FF0000E013207EB9C
:105960008C01C1E901EE4FF0180E626107F82CE0DE
:10597000C1E90368A162002D3BD0D3E90371E36A5A
:1059800082420B44E36237DA02EB8200531C226945
:1059900000264FF0180C02EB8005C5E90166636133
:1059A00002F820C0C5E90371E3681A78422A7FF43F
:1059B0007AAFA66A01332046E360FFF7F9FE2A4674
:1059C00003464E212046FFF779FBE36805461A7827
:1059D000422AEFD0A66200283FF464AFD4E908322F
:1059E0009342BFF65FAFE1695A1C41F8230022627F
:1059F00059E7D3E90171C2E70025D5E70021B9E7EE
:105A0000F4020110F8B5C3681A78572A27D1044662
:105A10000E4607E0E368E56945F8220021621A783E
:105A2000572A1CD15A1C5525E2605A78502A02D1B7
:105A300002335625E36037682046FFF7B9FE294652
:105A400003463A462046FFF739FB306030B1D4E9CF
:105A500008239A4202F10101DCDB0020F8BD01209D
:105A6000F8BD00BFC2682DE9F043044685B010467A
:105A7000FFF73AFD00BB1378552B68D8402B40F256
:105A80009580413B142B00F29180DFE813F09901DF
:105A90008F00850112018F009301C0008F008F00DD
:105AA0008F008F008F00C6018F00B200A4008F000E
:105AB00096008F00E600CE00002201A9204601F0EA
:105AC0002DFA054600283AD0E36820461B78462B7D
:105AD0003AD0FFF7C7FF2860002830D003781F3B7B
